:020000040800F2
:10000000300D002039540008C1040008C304000862
:10001000C7040008CB040008CF040008000000005B
:10002000000000000000000000000000D3040008F1
:10003000D504000800000000D7040008D904000817
:1000400053540008535400085354000853540008F4
:1000500053540008535400085354000853540008E4
:1000600053540008535400085354000853540008D4
:1000700053540008535400085354000853540008C4
:1000800053540008535400085354000853540008B4
:1000900053540008535400085354000853540008A4
:1000A0005354000853540008535400085354000894
:1000B0005354000841040008A104000853540008E8
:1000C00053540008B1040008B90400085354000850
:1000D00053540008A904000853540008535400085E
:1000E0009B430008535400085354000800F002F8E2
:1000F00000F05AF80AA090E8000C82448344AAF168
:100100000107DA4501D100F04FF8AFF2090EBAE865
:100110000F0013F0010F18BFFB1A43F0010318473B
:1001200050A7000070A700000A444FF0000C10F820
:10013000013B13F0070408BF10F8014B1D1108BF65
:1001400010F8015B641E05D010F8016B641E01F805
:10015000016BF9D113F0080F1EBF10F8014BAD1C55
:100160000C1B09D16D1E58BF01F801CBFAD505E073
:1001700014F8016B01F8016B6D1EF9D59142D6D3CD
:10018000704700000023002400250026103A28BFF5
:1001900078C1FBD8520728BF30C148BF0B607047F9
:1001A0001FB51FBD10B510BD08F0D8FD1146FFF7F3
:1001B000F7FF00F03DF808F0F6FD03B4FFF7F2FF9B
:1001C00003BC08F0F7FD00001CB503F072FB03F060
:1001D000B1FB04F0ABFD4FF4FA7004F023F904F026
:1001E00080FF02F09BFB0320009001231A467D490B
:1001F0000190A62008F013FA04F0B4FC04F0B2FD5C
:100200002821042004F0CFFE04F0AEFE07F0CBFA64
:1002100002F0B4FB02F0CDFB02F0F5FB02F0A2FF0E
:1002200003F068FE03F0EFFE012004F01CF91CBD92
:10023000FFF7CAFFD4E06C4800780028FAD000200D
:100240006949087069480078401C68490870684826
:100250000078401C6649087008460078142808D1C8
:1002600000200870634804F02FFF6349614800F0E4
:10027000B1FE5E480078012806D103F00FFF5F4908
:100280005F4804F06AFAABE00020584908705D4905
:100290005D4804F062FA5A49B1F900105A4AB2F9BD
:1002A0000020881800EBD071491009B2574A11801C
:1002B0005349B1F90210544AB2F90220881800EBF0
:1002C000D071491009B2514A51804D49B1F9041019
:1002D0004D4AB2F90420881800EBD071491009B2D8
:1002E0004A4A91804549B1F90010464AB2F90020C6
:1002F000881800EBD071491009B2454A11803F4976
:10030000B1F902103F4AB2F90220881800EBD0710F
:10031000491009B23E4A51803849B1F90410394AAE
:10032000B2F90420881800EBD071491009B2384A9C
:1003300091803849354800F0DBF8374A3549344870
:1003400000F020F92C4803782A4A3149324800F05D
:1003500041FC2948007810B103F010FB04E04FF491
:1003600000412E4805F0F3FA2D480078401C2C4936
:1003700008702C480078401C2A4908702A480078E8
:10038000401C2949087029480078401C27490870FA
:1003900023480078052805D1002021490870012054
:1003A000234908701F480078052805D100201D4901
:1003B000087001201F4908701B4800780A2805D1E1
:1003C00000201949087001201B490870174800785F
:1003D0000A2805D100201549087001201749087026
:1003E00029E70000801A0600020000201D000020FE
:1003F0001E000020200200201C0000202C000020F5
:1004000020000020320000202600002004000020F0
:100410000A00002010000020140200200008014003
:1004200038000020390000203A0000203B00002066
:10043000900000208F0000209100002099000020F3
:1004400010B52648008800F0010040B34FF6FE705A
:100450002249088022480068401C21490860214840
:100460000078401C1F4908701F480088401C1E4926
:1004700008801C480078022807D10020194908701C
:1004800004F0B7FA01201949087017480088B0F540
:10049000FA6F02D100201449088002F0ADF910BDB6
:1004A00010B504F0B0FE10BD10B504F041F810BD59
:1004B00010B508F049FA10BD10B508F011FC10BDD8
:1004C000704700BFFEE700BFFEE700BFFEE700BFCA
:1004D000FEE7704770477047704700001004004007
:1004E0007C0100204000002042000020020000208B
:1004F000F0B502460023002400251688FE4FDFF8E1
:10050000FCC39CF800C027F81C605688FC4FDFF83D
:10051000ECC39CF800C027F81C609688F94FDFF800
:10052000DCC39CF800C027F81C6000200DE0F24EF0
:1005300036F910603344F24E36F910603444F14E0F
:1005400036F910603544461CF0B21428EFDB14264F
:1005500093FBF6F636B20E80142694FBF6F636B20E
:100560004E80142695FBF6F636B28E80E34E367832
:10057000761CE24F3E703E463678142E01D100269E
:100580003E70F0BD07B5A8B02998B0F900001190F1
:1005900009F09EFE26902998B0F90200119009F00A
:1005A00097FE25902998B0F90400119009F090FE6B
:1005B00024902898B0F90000119009F089FE23904A
:1005C0002898B0F90200119009F082FE2290289834
:1005D000B0F90400119009F07BFE2190CA4801682F
:1005E000006809F0D5FE1990C8480168C64800683F
:1005F00009F0CEFE1890C6480168C348006809F0AB
:10060000C7FE1790C1480168006809F0C1FE169046
:10061000C0480168BD48006809F0BAFE1590BC48A2
:100620000168006809F0B4FE1490BA480168B8483F
:10063000006809F0ADFE1390B6480168006809F043
:10064000A7FE1290DDE9251009F0A2FE1090249972
:1006500009F09EFE0021119009F0CAFD01D12BB0D6
:1006600000BDAD49239809F093FE2390AA49229832
:1006700009F08EFE2290A849219809F089FE219068
:100680002499084609F084FE0C902599084609F043
:100690007FFE0A902699084609F07AFE09900A9989
:1006A00009F076FC0B900C9909F072FC0D9009F0A2
:1006B00043FCCDE90E0108F005FFCDE9100108F07B
:1006C00027FF20902099269809F0D0FC26902099A9
:1006D000259809F0CBFC25902099249809F0C6FCB8
:1006E00024908E49209809F01FFF02D200208C49E7
:1006F00008701799159809F053FF4FF08041119039
:1007000009F046FE1F901399189809F041FC4FF02C
:100710008041119009F03CFE1E901699199809F03D
:100720003FFF1090149909F03BFF1190129909F0C6
:100730002FFC1D901E99249809F02AFE11901D99F6
:10074000259809F025FE1090119909F029FF1C90B9
:100750001D99269809F01CFE11901F99249809F004
:1007600017FE1090119909F01BFF1B901F992598F7
:1007700009F00EFE11901E99269809F009FE1090BE
:10078000119909F00DFF1A9066491C9809F000FEB6
:10079000119065480168119809F0FAFB62490860F8
:1007A00060491B9809F0F4FD1190604801681198A8
:1007B00009F0EEFB5D4908605A491A9809F0E8FD16
:1007C00011905B480168119809F0E2FB58490860F4
:1007D00058481C9909F0DCFD1090239909F0D8FBCA
:1007E000119051480168119809F0D2FB23905148AB
:1007F0001B9909F0CDFD1090229909F0C9FB1190C9
:100800004A480168119809F0C3FB229049481A9997
:1008100009F0BEFD1090219909F0BAFB11904448EF
:100820000168119809F0B4FB21903A4821990068B9
:1008300009F0AEFD0F9036482299006809F0A8FD36
:100840000D903248006880F000400B90239909F029
:100850009FFD0C900D9909F0A3FE0E900F9909F0E1
:100860009FFE3049109009F093FD119026480168D1
:10087000119809F08DFB24490860264822990068E8
:1008800009F086FD0F9022482199006809F080FD4B
:100890000D901D482399006809F07AFD0C900D9980
:1008A00009F076FB0E900F9909F07AFE1D49109021
:1008B00009F06EFD119015480168119809F068FB68
:1008C0001249086013482399006809F061FD0F90F0
:1008D0000E482199006809F05BFD0D900A482299A5
:1008E000006809F055FD0C900D9909F059FE0E9025
:1008F0000F9909F04DFB1FE0340200206800002032
:100900005C020020840200204C00002050000020E7
:10091000540000205800002089A18B3A00E880464E
:100920001C0000206F12833A5C0000206000002051
:1009300064000020CDCCCC3F9C49109009F028FDEC
:1009400011909B480168119809F022FB98490860B2
:1009500097482399006809F01BFD0F90954822994C
:10096000006809F015FD0D9093482199006809F081
:100970000FFD0C900D9909F00BFB0E900F9909F0EB
:100980000FFE8A49109009F003FD11908B48016811
:10099000119809F0FDFA8949086008460168006865
:1009A00009F0F6FC0C9082480168006809F0F0FC40
:1009B0000A9080480168006809F0EAFC08907E48C7
:1009C0000168006809F0E4FC0790089909F0E0FA72
:1009D00009900A9909F0DCFA0B900C9909F0D8FA01
:1009E0000D9009F0A9FACDE90E0108F06BFDCDE9F3
:1009F000100108F08DFD20906F482099006809F0E3
:100A000035FB6D4908606B482099006809F02EFBA2
:100A10006849086066482099006809F027FB644926
:100A2000086066482099006809F020FB6349086067
:100A30002898B0F904000E9009F04AFC60490F9024
:100A400009F0A6FC5F49109009F0A2FC11902A98C9
:100A5000806801461090119809F09AFA2A998860E6
:100A60005948006809F068FACDE90E01524801685A
:100A70004FF0804009F08CFC04904D4801680498C8
:100A800009F086FC06904B4801684FF0404009F0A1
:100A90007FFC049049480168049809F079FC0590AE
:100AA000069909F075FA079009F046FACDE90801B0
:100AB00008F0F8F94FF06632444BCDE90A0108F02E
:100AC00061FFCDE90C01DDE90E2309F04BF9CDE919
:100AD000100108F01DFD2A9908603D48006809F0E2
:100AE0002BFACDE90E01324801684FF0804009F041
:100AF0004FFC01902E480168019809F049FC0390D1
:100B00002C4801684FF0404009F042FC0190294810
:100B10000168019809F03CFC0290039909F040FD3E
:100B20004FF07E51049009F033FA059009F004FA71
:100B3000CDE90801204801684FF0804009F028FC09
:100B400002901C480168029809F022FC04901848A1
:100B500001684FF0804009F01BFC029017480168C3
:100B6000029809F015FC0390049909F011FA059018
:100B700009F0E2F9CDE90601DDE9082308F0E2FB1E
:100B80004FF06632114BCDE90A0108F0FBFECDE9CA
:100B90000C01DDE90E2309F0E5F8CDE9100108F0BC
:100BA000B7FC2A99486000BF59E500006F12833AEC
:100BB00054000020500000204C000020580000206D
:100BC000F1FF793D6F12033B4800002066A64C40C0
:100BD000440000202DE9FE4F06460D4614461F46F0
:100BE000B4F90000A0F5BC600C2190FBF1F9484677
:100BF00009F06EFB8046316809F0C7FC0090B4F93B
:100C00000200A0F2DD500C2190FBF1F9484609F0FA
:100C10005FFB8046716809F0BBF90190DD480099DF
:100C2000006809F0B5F9DB490860DB49D94800687C
:100C300009F07AFC02D2D848D6490860D749D5488D
:100C4000006809F071FB02D2D448D2490860D44A46
:100C50000099106809F09CFBD1494860B5F9000083
:100C600009F036FB8146CE48006980F000484946CD
:100C7000404609F08DFBCA4948610A4651699068AF
:100C800009F086FBC649C860C6480199006809F0AA
:100C90007FF9C4490860C049C248006809F044FCB3
:100CA00002D2BD48BF490860BC49BE48006809F08F
:100CB0003BFB02D2B948BB490860BB4A01991068A6
:100CC00009F066FBB8494860B5F9020009F000FB7D
:100CD0008046B5480169404609F05AFBB24948616F
:100CE0008868B049096809F053FBAF49C860B4F996
:100CF0000600B0F5B96F04DBB4F90600B0F5BE6FBD
:100D000009DDA988E088A0F2DC5000EB800001EB4F
:100D1000400000B2A880B5F9040009F0D9FA824673
:100D2000A24909F035FB8146A14909F031FB804613
:100D3000A0480168404609F02BF99E4908609E4989
:100D40009C48006809F0F0FB02D29B489949086072
:100D50009A499848006809F0E7FA02D297489549FD
:100D60000860974908689349096809F011FB94499C
:100D70004860B5F9040009F0ABFA80469048016973
:100D8000404609F005FB8E494861B4F90400B0F50E
:100D9000806F06DC0020834908607E490860854931
:100DA00008607F48406880F000497D48C168484637
:100DB00009F0F6FB80467A484169404609F0E8F8B8
:100DC0007749C861784AD168506809F0E1F88046EF
:100DD00075484169404609F0DBF87349C861784AB3
:100DE000D168506809F0D4F880467548416940469A
:100DF00009F0CEF87249C861B4F9040040F21A4112
:100E000088427DDD002F7BD0B4F9040009F060FA40
:100E100082466348C169504609F0C2FB8146624878
:100E2000C169484609F0BCFB804609F015FA00B2DA
:100E300064490880B4F9040009F04AFA8246584827
:100E4000C169504609F0A4F881465748C16948462F
:100E500009F0A6FB804609F0FFF900B25A49088064
:100E6000B4F9040009F034FA82464D48C16950468D
:100E700009F08EF881464C48C169484609F088F867
:100E8000804609F0E9F900B250490880B4F904003D
:100E900009F01EFA82464248C169504609F080FBBB
:100EA00081464148C169484609F072F8804609F018
:100EB000D3F900B2464908804248B0F90000B0F5C5
:100EC000FA6F03DD4FF4FA603E4908803E48B0F9FE
:100ED0000000B0F5FA6F03DD4FF4FA603A4908807C
:100EE0003A48B0F90000B0F5FA6F03DD4FF4FA604C
:100EF000364908803648B0F90000B0F5FA6F00E0D6
:100F00002DE003DD4FF4FA60314908802D48B0F937
:100F10000000B0F57A7F03DA4FF47A70294908802F
:100F20002948B0F90000B0F57A7F03DA4FF47A70FF
:100F3000254908802548B0F90000B0F57A7F03DA2A
:100F40004FF47A70214908802148B0F90000B0F5CB
:100F50007A7F0EDA4FF47A701D49088009E04FF469
:100F60007A7018490880184908801849088018497B
:100F700008801748B0F900301448B0F90020124832
:100F8000B0F900100F48B0F9000003F017FEBDE8FB
:100F9000FE8F0000700000200000FA440000FAC438
:100FA000AC02002074000020CC0200208DC1793DED
:100FB0006F12033B780000200000A0410000A0C198
:100FC000EC0200207C0000207E0000208000002039
:100FD0008200002070B504460D46B4F90400B0F557
:100FE000617F1BDDB4F90400B0F5966F16DAB4F931
:100FF0000600B0F5617F11DDB4F90600B0F5966F1B
:101000000CDA36480078401C3449087008460078ED
:101010004B2829D100200870287025E0B4F904007D
:10102000B0F5617F1DDDB4F90400B0F5966F18DAF4
:10103000B4F90600B0F5E16F13DDB4F9060040F62F
:10104000340188420DDA25480078401C2349087095
:10105000084600784B2807D100200870012028702E
:1010600002E000201D4908702878012800D170BDD9
:10107000B4F90400B0F5966F12DAB4F90000B0F5D7
:10108000966F0DDA16480078401C1549087008461E
:1010900000784B281FD10020087003F056FB1AE09F
:1010A000B4F90400B0F5966F12DAB4F90000B0F5A7
:1010B000E16F0DDD0A480078401C094908700846B8
:1010C00000784B2807D10020087003F042FB02E0B3
:1010D00000200349087000BFC9E700008C00002011
:1010E0008D00002070B504460D46AA20FC4908700A
:1010F0004870EF2088700220C8700846047145715E
:101100000026002005E0F649095C3144CEB2411CBE
:10111000C8B20628F7DBF2488671072103F002FF08
:1011200070BD2DE9F04104460D460026002004E084
:10113000215C3144CEB2411CC8B2691E8142F7DC49
:10114000601910F8010CB04201D0BDE8F0812078A0
:10115000AA2802D16078AF2800D0F6E7A07801284D
:1011600010D12079012801D103F0EFFA207902286B
:1011700001D103F0EEFA2079032803D103F0E5FA58
:1011800003F0E7FAA078022814D1207901280BD1C6
:10119000D4490870D4490870D4490870D4490870FB
:1011A000D4490870D44908702079022802D101205E
:1011B000D2490870A07810287ED12179090209B29D
:1011C000627941EA020009F083F80746CC4908F049
:1011D0004DFFCC490860A179090209B2E27941EAE0
:1011E000020009F075F80746C74908F03FFFC549F6
:1011F0008860217A090209B2627A41EA020009F0A4
:1012000067F80746BE4908F031FFBE490861A17A78
:10121000090209B2E27A41EA020009F059F80746E8
:10122000B74908F023FFB9490860217B090209B2D8
:10123000627B41EA020009F04BF80746B24908F028
:1012400015FFB2498860A17B090209B2E27B41EA3D
:10125000020009F03DF80746A94908F007FFAB492D
:101260000861217C090209B2627C41EA020009F0AE
:101270002FF80746A24908F0F9FEA5490860A17CAD
:10128000090209B2E27C41EA020009F021F80746AE
:101290009B4908F0EBFE9E498860217D090209B256
:1012A000627D41EA020009F013F80746944908F00C
:1012B000DDFE9749086100E005E0A0783146FFF7C0
:1012C00011FF01F0B3FBA07811287DD1217909022B
:1012D00009B2627941EA020008F0FAFF074688493C
:1012E00008F0C4FE8B490860A179090209B2E279CD
:1012F00041EA020008F0ECFF0746814908F0B6FE1B
:1013000084498860217A090209B2627A41EA0200BE
:1013100008F0DEFF07467A4908F0A8FE7D4908611B
:10132000A17A090209B2E27A41EA020008F0D0FF8C
:101330000746734908F09AFE77490860217B090245
:1013400009B2627B41EA020008F0C2FF07466C491D
:1013500008F08CFE70498860A17B090209B2E27B2B
:1013600041EA020008F0B4FF0746654908F07EFE36
:1013700069490861217C090209B2627C41EA0200E4
:1013800008F0A6FF07465E4908F070FE6349086052
:10139000A17C090209B2E27C41EA020008F098FF50
:1013A0000746574908F062FE5C498860217D0902C2
:1013B00009B2627D41EA020008F08AFF07465049FF
:1013C00008F054FE554900E006E00861A078314677
:1013D000FFF788FE01F02AFBA07812287ED1217940
:1013E000090209B2627941EA020008F071FF07467A
:1013F000434908F03BFE4A490860A179090209B255
:10140000E27941EA020008F063FF07463C4908F030
:101410002DFE43498860217A090209B2627A41EAC5
:10142000020008F055FF0746354908F01FFE3C4909
:101430000861A17A090209B2E27A41EA020008F0E1
:1014400047FF07462E4908F011FE36490860217B08
:10145000090209B2627B41EA020008F039FF07463F
:10146000274908F003FE2F498860A17B090209B2D1
:10147000E27B41EA020008F02BFF0746204908F012
:10148000F5FD28490861217C090209B2627C41EA24
:10149000020008F01DFF0746194908F0E7FD224940
:1014A0000860A17C090209B2E27C41EA020008F06E
:1014B0000FFF0746124908F0D9FD1B498860217DBE
:1014C000090209B2627D41EA020008F001FF074605
:1014D0000B4908F0CBFD1449086127E02CE000001F
:1014E000CC040020930000209400002095000020F0
:1014F0009600002097000020980000209200002015
:101500000000C842AC02002000007A44CC02002057
:10151000EC0200200C0300202C0300204C030020D0
:101520006C0300208C030020AC030020A07831461F
:10153000FFF7D8FD01F07AFAA078132803D1A0783C
:101540003146FFF7CFFDA078142803D1A0783146AB
:10155000FFF7C8FDA078152803D1A0783146FFF722
:10156000C1FDA07816281BD12179090209B2627940
:1015700041EA020008F0ACFE0746FE4908F076FD9D
:10158000FD490860A179090209B2E27941EA020045
:1015900008F09EFE0746F74908F068FDF749086025
:1015A00000BFD2E570B5072003F06EFC044604F0DE
:1015B0004000A0B1602003F067FC0546212D09DA48
:1015C0002A46EF49612003F08FFC2946EC48FFF7DB
:1015D000A8FD03E0FF21E22003F042FC00BF04F07D
:1015E000100030B104F0010018B1FF21E12003F038
:1015F00037FC2146272003F033FC70BD10B51720BF
:1016000003F042FC10BD70B50024AA222146641CE0
:10161000DC4842542146641C425406222146641C84
:10162000425400222146641C4254D7484278214645
:10163000641CD4484254D54890F830282146641C94
:10164000D0484254D24842782146641CCD48425486
:10165000D04890F830282046611CCCB2C9490A54C1
:10166000CD4842782046611CCCB2C6490A54CB48CA
:1016700090F830282046611CCCB2C2490A54C848B0
:1016800042782046611CCCB2BE490A54C54890F845
:1016900030282046611CCCB2BA490A54C24842786C
:1016A0002146601CC4B2B7484254BF480278204665
:1016B000611CCCB2B3490A54BC4842782046611C34
:1016C000CCB2B0490A54B94802782046611CCCB269
:1016D000AC490A54B64842782046611CCCB2A949AC
:1016E0000A54B34802782046611CCCB2A5490A547A
:1016F000B04842782046611CCCB2A2490A54AD4899
:1017000002782046611CCCB29E490A54201FC87042
:101710000025002005E09B49095C2944CDB2411C0D
:10172000C8B2A042F7DB2046611CCCB295490D54EB
:101730002146944803F0F6FB70BDF8B50024AA22B8
:101740002146641C8F4842542146641C4254162290
:101750002146641C425400222146641C425485499F
:101760008548006808F014FE064608F075FD00B2D2
:1017700000909DF801202146641C824842549DF847
:1017800000202146641C42547A497C48006808F0D5
:10179000FFFD064608F060FD00B200909DF80120B4
:1017A0002146641C774842549DF800202046611C65
:1017B000CCB274490A54201FC8700025002005E0EF
:1017C0007049095C2944CDB2411CC8B2A042F7DB84
:1017D0002046611CCCB26B490D542146694803F088
:1017E000A1FBF8BD70B50024AA222146641C6548FF
:1017F00042542146641C425403222146641C425434
:1018000000222146641C42546B4842792146641CE4
:101810005C484254684802792146641C5948425445
:101820006548C2792146641C564842546248827910
:101830002046611CCCB253490A545F484278204686
:10184000611CCCB24F490A545B4802782046611CA7
:10185000CCB24C490A545848C2782046611CCCB2DC
:1018600048490A54544882782046611CCCB2454904
:101870000A54524842782046611CCCB241490A546D
:101880004E4802782046611CCCB23E490A544C486E
:1018900042782046611CCCB23A490A544848027842
:1018A0002046611CCCB237490A544648427820464B
:1018B000611CCCB233490A54424802782046611C6C
:1018C000CCB230490A54404842782146601CC4B228
:1018D0002C4842543C4802782046611CCCB229492D
:1018E0000A543A4842782046611CCCB225490A5431
:1018F000364802782146601CC4B222484254002275
:101900002046611CCCB21F490A542046611CCCB24F
:101910001C490A54201FC8700025002005E0194901
:10192000095C2944CDB2411CC8B2A042F7DB204675
:10193000611CCCB213490D542146124803F0F2FA4F
:1019400070BDF8B50024AA222146641C0D484254FB
:101950002146641C425415222146641C4254002234
:101960002146641C42541A4908681A4908F010FDBF
:10197000064631E000007A44440000204800002080
:101980007A060020CC040020ACF8FF1F7CF0FF1F7B
:10199000AEF8FF1F7EF0FF1FB0F8FF1F80F0FF1FA3
:1019A000B2F8FF1F82F0FF1F840000208600002095
:1019B000880000208A000020200200207C000020F7
:1019C0007E0000208000002082000020AC02002069
:1019D0008C0400200000C84208F03EFC00B20090D9
:1019E0009DF801202146641CFE4842549DF80020C9
:1019F0002146641C4254FC498868FC4908F0C8FC34
:101A0000064608F029FC00B200909DF8012021460E
:101A1000641CF44842549DF800202046611CCCB25E
:101A2000F0490A54F0490869F04908F0B1FC06464B
:101A300008F012FC00B200909DF801202046611CC5
:101A4000CCB2E8490A549DF800202046611CCCB273
:101A5000E4490A54E6490868E44908F099FC064656
:101A600008F0FAFB00B200909DF801202046611CAE
:101A7000CCB2DC490A549DF800202046611CCCB24F
:101A8000D8490A54DA498868D84908F081FC0646E2
:101A900008F0E2FB00B200909DF801202046611C96
:101AA000CCB2D0490A549DF800202046611CCCB22B
:101AB000CC490A54CE490869CC4908F069FC06466D
:101AC00008F0CAFB00B200909DF801202046611C7E
:101AD000CCB2C4490A549DF800202046611CCCB207
:101AE000C0490A54201FC8700025002005E0BD49E8
:101AF000095C2944CDB2411CC8B2A042F7DB2046A4
:101B0000611CCCB2B7490D542146B64803F00AFA1D
:101B1000F8BDF8B50024AA222146641CB1484254FD
:101B20002146641C425414222146641C4254002263
:101B30002146641C4254AF490868AC4908F028FCAF
:101B4000064608F089FB00B200909DF8012021466E
:101B5000641CA44842549DF800202146641C425451
:101B6000A4498868A14908F013FC064608F074FBF4
:101B700000B200909DF801202146641C994842540F
:101B80009DF800202046611CCCB296490A54994920
:101B90000869964908F0FCFB064608F05DFB00B2B8
:101BA00000909DF801202046611CCCB28D490A545A
:101BB0009DF800202046611CCCB28A490A548E4907
:101BC00008688A4908F0E4FB064608F045FB00B2C5
:101BD00000909DF801202046611CCCB281490A5436
:101BE0009DF800202146601CC4B27E4842548249C0
:101BF00088687E4908F0CCFB064608F02DFB00B251
:101C000000909DF801202046611CCCB275490A5411
:101C10009DF800202046611CCCB272490A547649D6
:101C20000869724908F0B4FB064608F015FB00B2DB
:101C300000909DF801202046611CCCB269490A54ED
:101C40009DF800202146601CC4B2664842546B498E
:101C50000868664908F09CFB064608F0FDFA00B2E9
:101C600000909DF801202046611CCCB25D490A54C9
:101C70009DF800202046611CCCB25A490A545F49A5
:101C800088685A4908F084FB064608F0E5FA00B275
:101C900000909DF801202146601CC4B25148425476
:101CA0009DF800202046611CCCB24E490A5453498D
:101CB00008694E4908F06CFB064608F0CDFA00B200
:101CC00000909DF801202046611CCCB245490A5481
:101CD0009DF800202046611CCCB242490A54201FC6
:101CE000C8700025002005E03E49095C2944CDB2BA
:101CF000411CC8B2A042F7DB2046611CCCB2394976
:101D00000D542146374803F00DF9F8BDF8B500240D
:101D1000AA222146641C334842542146641C425482
:101D200013222146641C425400222146641C425462
:101D3000334908682D4908F02BFB064608F08CFA59
:101D400000B200909DF801202146641C25484254B1
:101D50009DF800202146641C425429498868234983
:101D600008F016FB064608F077FA00B200909DF8DE
:101D700001202146641C1B4842549DF80020204647
:101D8000611CCCB217490A541D490869174908F06B
:101D9000FFFA064608F060FA00B200909DF80120B4
:101DA0002046611CCCB20F490A549DF80020204601
:101DB000611CCCB20B490A54124908680B4908F05F
:101DC000E7FA064608F048FA00B200909DF80120B4
:101DD0002046611CCCB203490A549DF800202146DC
:101DE000601C11E0CC0400208C0400200000C842DC
:101DF000AC0400202C0400204C0400206C040020C3
:101E0000CC030020EC030020C4B2FE484254FE493B
:101E10008868FE4908F0BCFA064608F01DFA00B2D0
:101E200000909DF801202046611CCCB2F5490A546F
:101E30009DF800202046611CCCB2F2490A54F249B8
:101E40000869F24908F0A4FA064608F005FA00B25B
:101E500000909DF801202046611CCCB2E9490A544B
:101E60009DF800202146601CC4B2E6484254E8496F
:101E70000868E64908F08CFA064608F0EDF900B269
:101E800000909DF801202046611CCCB2DD490A5427
:101E90009DF800202046611CCCB2DA490A54DC4986
:101EA0008868DA4908F074FA064608F0D5F900B2F5
:101EB00000909DF801202146601CC4B2D1484254D4
:101EC0009DF800202046611CCCB2CE490A54D0496E
:101ED0000869CE4908F05CFA064608F0BDF900B280
:101EE00000909DF801202046611CCCB2C5490A54DF
:101EF0009DF800202046611CCCB2C2490A54201F24
:101F0000C8700025002005E0BE49095C2944CDB217
:101F1000411CC8B2A042F7DB2046611CCCB2B949D3
:101F20000D542146B74802F0FDFFF8BDF8B5002476
:101F3000AA222146641CB34842542146641C4254E0
:101F400012222146641C425400222146641C425441
:101F5000B0490868AD4908F01BFA064608F07CF95C
:101F600000B200909DF801202146641CA54842540F
:101F70009DF800202146641C4254A6498868A34964
:101F800008F006FA064608F067F900B200909DF8DE
:101F900001202146641C9B4842549DF800202046A5
:101FA000611CCCB297490A549A490869974908F0CC
:101FB000EFF9064608F050F900B200909DF80120B4
:101FC0002046611CCCB28F490A549DF8002020465F
:101FD000611CCCB28B490A548F4908688B4908F0C0
:101FE000D7F9064608F038F900B200909DF80120B4
:101FF0002046611CCCB283490A549DF8002021463A
:10200000601CC4B27F484254834988687F4908F005
:10201000BFF9064608F020F900B200909DF80120B3
:102020002046611CCCB277490A549DF80020204616
:10203000611CCCB273490A5477490869734908F0A6
:10204000A7F9064608F008F900B200909DF80120B3
:102050002046611CCCB26B490A549DF800202146F1
:10206000601CC4B2674842546C490868674908F06C
:102070008FF9064608F0F0F800B200909DF80120B4
:102080002046611CCCB25F490A549DF800202046CE
:10209000611CCCB25B490A54604988685B4908F00E
:1020A00077F9064608F0D8F800B200909DF80120B4
:1020B0002146601CC4B2534842549DF8002020467B
:1020C000611CCCB24F490A54544908694F4908F081
:1020D0005FF9064608F0C0F800B200909DF80120B4
:1020E0002046611CCCB247490A549DF80020204686
:1020F000611CCCB243490A54201FC870002500203F
:1021000005E04049095C2944CDB2411CC8B2A04257
:10211000F7DB2046611CCCB23A490D5421463948C0
:1021200002F000FFF8BDF8B50024AA222146641C85
:10213000344842542146641C425411222146641CF6
:10214000425400222146641C4254354908682F49F4
:1021500008F01EF9064608F07FF800B200909DF8DE
:1021600001202146641C274842549DF80020214646
:10217000641C42542A498868244908F009F9064633
:1021800008F06AF800B200909DF801202146641C16
:102190001C4842549DF800202046611CCCB21949CD
:1021A0000A541F490869194908F0F2F8064608F070
:1021B00053F800B200909DF801202046611CCCB27B
:1021C00010490A549DF800202046611CCCB20D49EC
:1021D0000A54144908680D4908F0DAF8064608F070
:1021E0003BF800B200909DF801202046611CCCB263
:1021F00004490A549DF800202146601CC4B20148DD
:10220000425411E0CC040020EC0300200000C8423E
:102210000C0400206C0300208C030020AC03002081
:102220000C0300202C030020FE498868FE4908F0BA
:10223000AFF8064608F010F800B200909DF80120B3
:102240002046611CCCB2F9490A549DF80020204672
:10225000611CCCB2F5490A54F2490869F24908F008
:1022600097F8064607F0F8FF00B200909DF80120AD
:102270002046611CCCB2ED490A549DF8002021464D
:10228000601CC4B2E9484254E9490868E64908F0CC
:102290007FF8064607F0E0FF00B200909DF80120AD
:1022A0002046611CCCB2E1490A549DF8002020462A
:1022B000611CCCB2DD490A54DD498868DA4908F06E
:1022C00067F8064607F0C8FF00B200909DF80120AD
:1022D0002146601CC4B2D54842549DF800202046D7
:1022E000611CCCB2D1490A54D1490869CE4908F0E1
:1022F0004FF8064607F0B0FF00B200909DF80120AD
:102300002046611CCCB2C9490A549DF800202046E1
:10231000611CCCB2C5490A54201FC870002500209A
:1023200005E0C249095C2944CDB2411CC8B2A042B3
:10233000F7DB2046611CCCB2BC490D542146BB489A
:1023400002F0F0FDF8BDF8B50024AA222146641C75
:10235000B64842542146641C425410222146641C53
:10236000425400222146641C4254B2490868AE49D6
:1023700008F00EF8064607F06FFF00B200909DF8D7
:1023800001202146641CA94842549DF800202146A2
:10239000641C4254A7498868A74907F0F9FF06461C
:1023A00007F05AFF00B200909DF801202146641CFE
:1023B0009E4842549DF800202046611CCCB29B49A7
:1023C0000A549C490869984907F0E2FF064607F05D
:1023D00043FF00B200909DF801202046611CCCB262
:1023E00092490A549DF800202046611CCCB28F49C6
:1023F0000A54924908688C4907F0CAFF064607F05C
:102400002BFF00B200909DF801202046611CCCB249
:1024100086490A549DF800202146601CC4B28348B6
:10242000425486498868844907F0B2FF064607F09F
:1024300013FF00B200909DF801202046611CCCB231
:102440007A490A549DF800202046611CCCB2774995
:102450000A547A490869744907F09AFF064607F05A
:10246000FBFE00B200909DF801202046611CCCB21A
:102470006E490A549DF800202146601CC4B26B4886
:1024800042546F490868684907F082FF064607F022
:10249000E3FE00B200909DF801202046611CCCB202
:1024A00062490A549DF800202046611CCCB25F4965
:1024B0000A54634988685C4907F06AFF064607F0DA
:1024C000CBFE00B200909DF801202146601CC4B2F2
:1024D000564842549DF800202046611CCCB2534916
:1024E0000A5457490869504907F052FF064607F059
:1024F000B3FE00B200909DF801202046611CCCB2D2
:102500004A490A549DF800202046611CCCB2474934
:102510000A54201FC8700025002005E04349095CCB
:102520002944CDB2411CC8B2A042F7DB2046611C51
:10253000CCB23E490D5421463C4802F0F3FCF8BDB4
:1025400070B50024AA222146641C38484254214612
:10255000641C425402222146641C4254002221463B
:10256000641C4254374842782146641C2F48425428
:10257000344802782146641C2C4842543148C278C1
:102580002146641C294842542E4882782046611C0A
:10259000CCB226490A542B4842792046611CCCB261
:1025A00022490A54274802792046611CCCB21F49AF
:1025B0000A54254842782046611CCCB21B490A5473
:1025C000214802782046611CCCB218490A541E48A2
:1025D000C2782046611CCCB214490A541A48827849
:1025E0002046611CCCB211490A5417484279204652
:1025F000611CCCB20D490A54134802792046611C73
:10260000CCB20A490A54114842782046611CCCB227
:1026100006490A540D4802782046611CCCB2034991
:102620000A5415E02C0300200000C842CC0400200E
:102630004C030020AC02002000007A44CC020020B1
:10264000EC020020040000200A0000205C010020B1
:10265000A04842782046611CCCB29F490A549D484C
:1026600002782046611CCCB29B490A549B484278B0
:102670002046611CCCB298490A54984802782046FA
:10268000611CCCB294490A54201FC8700025002058
:1026900005E09149095C2944CDB2411CC8B2A04271
:1026A000F7DB2046611CCCB28B490D5421468A4889
:1026B00002F038FC70BD7CB50024AA222146641CBF
:1026C000854842542146641C425401222146641C20
:1026D000425400222146641C4254814908688149C1
:1026E00007F056FE064607F0B7FD00B201909DF8D0
:1026F00005202146641C784842549DF80420214658
:10270000641C425476494868764907F041FE064603
:1027100007F0A2FD00B201909DF805202146641C3F
:102720006D4842549DF804202046611CCCB26A4991
:102730000A546B4988686B4907F02AFE064607F081
:102740008BFD00B201909DF805202046611CCCB2A3
:1027500061490A549DF804202046611CCCB25E49B0
:102760000A546148006800909DF803202046611CCF
:10277000CCB259490A549DF802202046611CCCB2C3
:1027800055490A549DF801202046611CCCB252499B
:102790000A549DF800202046611CCCB24E490A54D0
:1027A0005248007830B9A0222046611CCCB24A4978
:1027B0000A5409E04D480078012805D1A12220469D
:1027C000611CCCB244490A54201F4349C8700025FB
:1027D000002005E04049095C2944CDB2411CC8B243
:1027E000A042F7DB2046611CCCB23B490D54214688
:1027F000394802F097FB7CBD10B5FEF7D3FEFEF71B
:10280000FDFE044604F0100000B910BD3848007801
:1028100028B1002036490870FFF74DFF58E03548D1
:10282000007828B1002033490870FFF789FE4FE097
:102830003148007828B100202F490870FFF783FD48
:1028400046E02E48007828B100202C490870FFF798
:102850006AFC3DE02A48007828B100202849087029
:10286000FFF764FB34E02748007828B100202549B1
:102870000870FFF74BFA2BE02348007828B10020BE
:1028800021490870FFF745F922E02048007828B177
:1028900000201E490870FFF754F819E01C48007822
:1028A00028B100201A490870FEF79CFF10E0194873
:1028B000007828B1002017490870FEF73EFF07E0B6
:1028C0001548007820B1002013490870FEF79BFEE0
:1028D00000BF9AE760010020CC04002064010020C2
:1028E000140200200000C842180000201C00002034
:1028F0008F00002090000020930000209400002012
:1029000095000020960000209700002098000020ED
:1029100091000020920000209900002008B54FF49B
:10292000A06002F099FE25208DF8000005208DF8AA
:10293000010001208DF802008DF80300684602F0C6
:1029400090FE1D208DF8000002208DF8010001206E
:102950008DF802008DF80300684602F082FE1E200A
:102960008DF8000000208DF8010001208DF8020094
:102970008DF80300684602F074FE08BD10B501F042
:102980001AFA10BD10B5FE4A128891B2FD4A10889D
:1029900001F096FAFA4A528891B2FA4A508801F048
:1029A0008FFAF74A928891B2F64A908801F088FA35
:1029B00010BD10B5F3490888F14901F0DCF8F14980
:1029C0004888EF49891C01F0D6F8EE498888EC491F
:1029D000091D01F0D0F810BD10B5EB4A128891B274
:1029E000E84AD08801F06CFAE74A528891B2E54A89
:1029F000108901F065FAE44A928891B2E14A50895F
:102A000001F05EFA10BD10B5DE49C888DE4901F05C
:102A1000B2F8DC490889DC49891C01F0ACF8D949D5
:102A20004889D949091D01F0A6F810BD0EB5D7484F
:102A30000068D749009007F0ABFC019007F028FC34
:102A400080B20290CF4880890190029901F038FA53
:102A5000CE488068CF49009007F09AFC019007F0BB
:102A600017FC80B20290C748C0890190029901F01A
:102A700027FAC6480069C649009007F089FC019012
:102A800007F006FC80B20290BE48008A01900299CD
:102A900001F016FAC0480068BD49009007F078FCC4
:102AA000019007F0F5FB80B20290B648408A019091
:102AB000029901F005FAB8488068B649009007F01D
:102AC00067FC019007F0E4FB80B20290AD48808A79
:102AD0000190029901F0F4F9AF480069AC49009007
:102AE00007F056FC019007F0D3FB80B20290A54896
:102AF000C08A0190029901F0E3F9A8480068A4494E
:102B0000009007F045FC019007F0C2FB80B20290F4
:102B10009C48008B0190029901F0D2F99F4880688F
:102B20009C49009007F034FC019007F0B1FB80B2A3
:102B300002909448408B0190029901F0C1F99748A6
:102B400000699349009007F023FC019007F0A0FB77
:102B500080B202908B48808B0190029901F0B0F90D
:102B60008F4800688A49009007F012FC019007F036
:102B70008FFB80B202908348C08B0190029901F0D4
:102B80009FF9874880688349009007F001FC019015
:102B900007F07EFB80B202907A48008C0190029987
:102BA00001F08EF97E4800697949009007F0F0FB4A
:102BB000019007F06DFB80B202907248408C01904A
:102BC000029901F07DF9774800687149009007F09B
:102BD000DFFB019007F05CFB80B202906948808CBB
:102BE0000190029901F06CF96E4880686949009083
:102BF00007F0CEFB019007F04BFB80B202906148DA
:102C0000C08C0190029901F05BF966480069604947
:102C1000009007F0BDFB019007F03AFB80B20290F4
:102C20005848008D0190029901F04AF95E48006809
:102C30005749009007F0ACFB019007F029FB80B2E8
:102C400002905048408D0190029901F039F95648A0
:102C500080685049009007F09BFB019007F018FB3B
:102C600080B202904748808D0190029901F028F9C6
:102C70004D4800694649009007F08AFB019007F033
:102C800007FB80B202903F48C08D0190029901F08D
:102C900017F9464800683E49009007F079FB01901B
:102CA00007F0F6FA80B202903648008E0190029941
:102CB00001F006F93D4880683649009007F068FB4E
:102CC000019007F0E5FA80B202902E48408E019004
:102CD000029901F0F5F8354800692D49009007F098
:102CE00057FB019007F0D4FA80B202902548808EFD
:102CF0000190029901F0E4F82D4800682449009001
:102D000007F046FB019007F0C3FA80B202901D481D
:102D1000C08E0190029901F0D3F8254880681D49C2
:102D2000009007F035FB019007F0B2FA80B20290F4
:102D30001448008F0190029901F0C2F81C48006904
:102D40001349009007F024FB019007F0A1FA80B22C
:102D500002900C48408F0190029901F0B1F815489B
:102D600000680B49009007F013FB019007F090FA00
:102D700080B202900348808F019002991CE000000D
:102D80008E0100209A00002088010020AC02002063
:102D90000000C84200007A44CC020020EC0200206F
:102DA0000C0300202C0300204C0300206C030020A7
:102DB0008C030020AC03002001F082F8FE488068FC
:102DC000FE49009007F0E4FA019007F061FA80B242
:102DD0000290FB48C08F0190029901F071F8F6480B
:102DE0000069F849009007F0D3FA019007F050FA13
:102DF00080B20290F248B0F840000190029901F0D0
:102E00005FF8F1480068EF49009007F0C1FA0190BF
:102E100007F03EFA80B20290E948B0F84200019013
:102E2000029901F04DF8E8488068E449009007F005
:102E3000AFFA019007F02CFA80B20290E048B0F8A7
:102E400044000190029901F03BF8DF480069DD4938
:102E5000009007F09DFA019007F01AFA80B20290F4
:102E6000D748B0F846000190029901F029F8D748F8
:102E70000068D449009007F08BFA019007F008FA37
:102E800080B20290CE48B0F848000190029901F05B
:102E900017F8CE488068C949009007F079FA019088
:102EA00007F0F6F980B20290C548B0F84A000190E8
:102EB000029901F005F8C5480069C249009007F081
:102EC00067FA019007F0E4F980B20290BC48B0F8CC
:102ED0004C000190029900F0F3FFBD480068B94929
:102EE000009007F055FA019007F0D2F980B20290F5
:102EF000B348B0F84E000190029900F0E1FFB448E9
:102F00008068AE49009007F043FA019007F0C0F9DD
:102F100080B20290AA48B0F850000190029900F0E7
:102F2000CFFFAB480069A749009007F031FA019044
:102F300007F0AEF980B20290A148B0F852000190BB
:102F4000029900F0BDFFA34800689E49009007F079
:102F50001FFA019007F09CF980B202909848B0F8EF
:102F600054000190029900F0ABFF9A4880689349A1
:102F7000009007F00DFA019007F08AF980B20290F4
:102F80008F48B0F856000190029900F099FF9148DF
:102F900000698C49009007F0FBF9019007F078F97F
:102FA00080B202908648B0F858000190029900F073
:102FB00087FF894800688349009007F0E9F901908C
:102FC00007F066F980B202907D48B0F85A0001908F
:102FD000029900F075FF804880687849009007F0FA
:102FE000D7F9019007F054F980B202907448B0F814
:102FF0005C000190029900F063FF77480069714915
:10300000009007F0C5F9019007F042F980B20290F4
:103010006B48B0F85E000190029900F051FF6F48D4
:1030200000686849009007F0B3F9019007F030F9A3
:1030300080B202906248B0F860000190029900F0FE
:103040003FFF664880685D49009007F0A1F9019054
:1030500007F01EF980B202905948B0F86200019062
:10306000029900F02DFF5D4800695649009007F075
:103070008FF9019007F00CF980B202905048B0F837
:1030800064000190029900F01BFF554800684D490B
:10309000009007F07DF9019007F0FAF880B20290F5
:1030A0004748B0F866000190029900F009FF4C48CB
:1030B00080684249009007F06BF9019007F0E8F84A
:1030C00080B202903E48B0F868000190029900F08A
:1030D000F7FE434800693B49009007F059F9019019
:1030E00007F0D6F880B202903548B0F86A00019037
:1030F000029900F0E5FE3B4800683249009007F075
:1031000047F9019007F0C4F880B202902C48B0F85B
:103110006C000190029900F0D3FE32488068274984
:10312000009007F035F9019007F0B2F880B20290F4
:103130002348B0F86E000190029900F0C1FE2948C2
:1031400000692049009007F023F9019007F0A0F8EA
:1031500080B202901A48B0F870000190029900F015
:10316000AFFE0EBD1CB51648808901A9009000F085
:1031700002FDBDF8040007F0C3F81249009006F004
:1031800075FF194908600E48C08901A9009000F038
:10319000F2FCBDF8040007F0B3F80849009006F00F
:1031A00065FF114988600648008A01A9009000F077
:1031B000E2FCBDF8040019E0AC03002000007A44F2
:1031C0009A0000200000C842CC030020EC0300203D
:1031D0000C0400202C0400204C0400206C0400206F
:1031E0008C040020AC040020AC02002007F088F81A
:1031F000FE49009006F03AFFFD490861FD48408A0B
:1032000001A9009000F0B7FCBDF8040007F078F8C1
:10321000F649009006F02AFFF7490860F548808AD1
:1032200001A9009000F0A7FCBDF8040007F068F8C1
:10323000F249009006F01AFFEF498860ED48C08A15
:1032400001A9009000F097FCBDF8040007F058F8C1
:10325000E649009006F00AFFE7490861E548008B5F
:1032600001A9009000F087FCBDF8040007F048F8C1
:10327000DE49009006F0FAFEE1490860DD48408B27
:1032800001A9009000F077FCBDF8040007F038F8C1
:10329000DA49009006F0EAFED9498860D548808B6B
:1032A00001A9009000F067FCBDF8040007F028F8C1
:1032B000CE49009006F0DAFED1490861CD48C08BB6
:1032C00001A9009000F057FCBDF8040007F018F8C1
:1032D000C649009006F0CAFECA490860C548008C7D
:1032E00001A9009000F047FCBDF8040007F008F8C1
:1032F000C249009006F0BAFEC2498860BD48408CC1
:1033000001A9009000F037FCBDF8040006F0F8FFBA
:10331000B649009006F0AAFEBA490861B548808C0B
:1033200001A9009000F027FCBDF8040006F0E8FFBA
:10333000AE49009006F09AFEB3490860AD48C08CD3
:1033400001A9009000F017FCBDF8040006F0D8FFBA
:10335000AA49009006F08AFEAB498860A548008D16
:1033600001A9009000F007FCBDF8040006F0C8FFBA
:103370009E49009006F07AFEA34908619D48408D61
:1033800001A9009000F0F7FBBDF8040006F0B8FFBB
:103390009649009006F06AFE9C4908609548808D29
:1033A00001A9009000F0E7FBBDF8040006F0A8FFBB
:1033B0009249009006F05AFE944988608D48C08D6D
:1033C00001A9009000F0D7FBBDF8040006F098FFBB
:1033D0008649009006F04AFE8C4908618548008EB7
:1033E00001A9009000F0C7FBBDF8040006F088FFBB
:1033F0007E49009006F03AFE854908607D48408E7F
:1034000001A9009000F0B7FBBDF8040006F078FFBA
:103410007A49009006F02AFE7D4988607548808EC2
:1034200001A9009000F0A7FBBDF8040006F068FFBA
:103430006E49009006F01AFE754908616D48C08E0D
:1034400001A9009000F097FBBDF8040006F058FFBA
:103450006649009006F00AFE6E4908606548008FD4
:1034600001A9009000F087FBBDF8040006F048FFBA
:103470006249009006F0FAFD664988605D48408F19
:1034800001A9009000F077FBBDF8040006F038FFBA
:103490005649009006F0EAFD5E4908615548808F64
:1034A00001A9009000F067FBBDF8040006F028FFBA
:1034B0004E49009006F0DAFD574908604D48C08F2C
:1034C00001A9009000F057FBBDF8040006F018FFBA
:1034D0004A49009006F0CAFD4F4988604548B0F857
:1034E000400001A9009000F046FBBDF8040006F082
:1034F00007FF3E49009006F0B9FD474908613D4885
:10350000B0F8420001A9009000F035FBBDF80400BE
:1035100006F0F6FE3549009006F0A8FD3F49086028
:103520003448B0F8440001A9009000F024FBBDF835
:10353000040006F0E5FE3149009006F097FD37499A
:1035400088602C48B0F8460001A9009000F013FBF9
:10355000BDF8040006F0D4FE2449009006F086FD74
:103560002E4908612348B0F8480001A9009000F0F6
:1035700002FBBDF8040006F0C3FE1C49009006F0F3
:1035800075FD274908601B48B0F84A0001A9009062
:1035900000F0F1FABDF8040006F0B2FE1749009001
:1035A00006F064FD1E4988601248B0F84C0001A97D
:1035B000009000F0E0FABDF8040006F0A1FE0B490F
:1035C000009006F053FD164908610A48B0F84E0015
:1035D00001A9009000F0CFFABDF8040006F090FEBB
:1035E0000249009006F042FD0E491DE00000C8426D
:1035F000AC0200209A000020CC02002000007A4497
:10360000EC0200200C0300202C0300204C030020BF
:103610006C0300208C030020AC030020CC030020AE
:10362000EC0300200C04002008609148B0F8500022
:1036300001A9009000F09FFABDF8040006F060FEBA
:103640008C49009006F012FD8B4988608848B0F8DC
:10365000520001A9009000F08EFABDF8040006F0B7
:103660004FFE8649009006F001FD834908618048BD
:10367000B0F8540001A9009000F07DFABDF80400F4
:1036800006F03EFE7D49009006F0F0FC7C490860A3
:103690007748B0F8560001A9009000F06CFABDF828
:1036A000040006F02DFE7349009006F0DFFC74491B
:1036B00088606F48B0F8580001A9009000F05BFAEC
:1036C000BDF8040006F01CFE6C49009006F0CEFC2C
:1036D0006B4908616648B0F85A0001A9009000F0F3
:1036E0004AFABDF8040006F00BFE6449009006F0AB
:1036F000BDFC644908605E48B0F85C0001A9009018
:1037000000F039FABDF8040006F0FAFD59490090BE
:1037100006F0ACFC5B4988605548B0F85E0001A932
:10372000009000F028FABDF8040006F0E9FD5349C6
:10373000009006F09BFC534908614D48B0F86000CA
:1037400001A9009000F017FABDF8040006F0D8FDBA
:103750004A49009006F08AFC4B4908604448B0F89A
:10376000620001A9009000F006FABDF8040006F01E
:10377000C7FD4049009006F079FC434988603C4809
:10378000B0F8640001A9009000F0F5F9BDF804005C
:1037900006F0B6FD3949009006F068FC3A49086128
:1037A0003348B0F8660001A9009000F0E4F9BDF8D4
:1037B000040006F0A5FD3149009006F057FC33499E
:1037C00008602B48B0F8680001A9009000F0D3F918
:1037D000BDF8040006F094FD2649009006F046FC72
:1037E0002A4988602248B0F86A0001A9009000F0D8
:1037F000C2F9BDF8040006F083FD2049009006F0F0
:1038000035FC224908611A48B0F86C0001A9009003
:1038100000F0B1F9BDF8040006F072FD1749009000
:1038200006F024FC1A4908601148B0F86E0001A99E
:10383000009000F0A0F9BDF8040006F061FD0D490C
:10384000009006F013FC124988600948B0F8700037
:1038500001A9009000F08FF9BDF8040006F050FDBA
:103860000649009006F002FC094908611CBD0000F1
:103870009A00002000007A440C0400200000C84296
:103880002C0400204C0400206C0400208C04002038
:10389000AC040020002109E0002201E0531C9AB290
:1038A00042F234139A42F9DB4B1C99B28142F3DBAA
:1038B000704708B50121042003F06AFB01210820AC
:1038C00003F066FB0121084603F062FB01214B482F
:1038D00002F061F801214A4802F05DF84FF400401F
:1038E000ADF8000003208DF8020010208DF80300D1
:1038F0006946444801F07EFF4FF40041414802F020
:1039000028F84FF48050ADF8000003208DF8020035
:1039100010208DF8030069463B4801F06BFF4FF41F
:103920008051394802F015F84FF48051364802F0C2
:103930000EF808BD10B54FF40041324802F009F806
:103940006420FFF7A7FF4FF400412E4801F0FFFF6E
:103950006420FFF79FFF10BD10B54FF480512A4837
:1039600001F0F7FF6420FFF795FF4FF480512648E0
:1039700001F0EDFF6420FFF78DFF10BD10B5234867
:103980000078E8B12248007838B922480068224916
:10399000086001201E4908702EE01F48006896301C
:1039A0001C490968884227D20020184908704FF442
:1039B0000041144801F0CBFF0020154908701BE0BE
:1039C0001348007838B9134800681349086001208B
:1039D0000F49087010E01048006896300D490968DA
:1039E000884209D2012009490870C103054801F045
:1039F000B0FF00200649087010BD00000004300030
:103A00000002300000080140000C014011010020BC
:103A1000100100207C010020140100200346062133
:103A20000622F7480188F7480288ABB1012B1BD169
:103A30003AB94EF6EE60814201D100207047012074
:103A4000FCE739B94EF6EE60824201D10120F5E77C
:103A50000020F3E7AB20F1E709B90020EEE70AB94F
:103A60000120EBE7AB20E9E70020E7E770B504268B
:103A700000240120FFF7D2FF0446AB2C06D1E0481A
:103A800000EB8420E0490860AB2070BDDC4800EB0F
:103A90008420DD490860601CD949891E01EB80251E
:103AA0000CE0D94800680068401C10B90426304674
:103AB000EBE7D5480068001DD3490860D24800688C
:103AC000A842EED38020E0E710B50424CC4803F0F0
:103AD000AFFE0446042C01D0204610BD0021C8488A
:103AE00003F0A9FF0446042C01D02046F5E7C548A1
:103AF00003F09EFE04462046EFE72DE9F041044620
:103B00000F4604250026DFF804830120FFF786FF17
:103B10000646AB2E01D1BDE8F081701CB849891E64
:103B200001EB802821E0B84800680068401CB8B963
:103B30003946B548006803F07EFF0546042D01D0E4
:103B40002846E8E72146B0480068801C03F073FF70
:103B50000546AD480068001DAB4908602846DAE715
:103B6000A9480068001DA8490860A74800684045AA
:103B7000D9D38020CFE72DE9F04706460F46002530
:103B800045F255584FF001099D4CA2460020FFF721
:103B900045FF0546AB2D01D1BDE8F087984800EB05
:103BA000852A99480068841E0AE0B4F80080B04570
:103BB00005D134F8020C38804FF0000904E0241FCE
:103BC0000AF102008442F0D800BF4846E4E72DE93C
:103BD000F0474FF0060A062600250027A8464FF0BA
:103BE000FF398748B0F800A0864806885FEA0A00D7
:103BF00075D0A0F56E40EE3858B3A0F58850113856
:103C000000286DD146B97E4803F012FE0446042C0C
:103C10001ED02046BDE8F0874EF6EE60864210D1F9
:103C2000774803F005FE0446042C01D02046F1E756
:103C30000021744803F0FFFE0446042C08D02046FF
:103C4000E8E7FFF741FF0446042C01D02046E1E7F6
:103C5000AEE07EBB002522E06948C0886C4931F89F
:103C60001510884201D10FFA85F94D4515D06849E4
:103C700031F815006749FFF77EFF8046B8F1010F64
:103C80000BD0634931F8150062490988FFF735FF09
:103C90000746042F01D03846BCE7681C85B2392D91
:103CA000DADB0021564803F0C6FE0446042C02D09D
:103CB0002046AFE707E0534803F0BAFD0446042C62
:103CC0001FD02046A6E74FF6FF70864212D14D481E
:103CD00003F0AEFD0446042C03D020469AE711E021
:103CE0005EE00021464803F0A6FE0446042C08D0FE
:103CF00020468FE7FFF7E8FE0446042C01D020465B
:103D000088E755E036B9FFF7DFFE0446042C46D0BD
:103D100020467FE74FF6FF70864207D1394803F00F
:103D200087FD0446042C3AD0204673E7002523E0A3
:103D30003448801D0088364931F81510884201D179
:103D40000FFA85F94D4515D0314931F81500314943
:103D5000FFF711FF8046B8F1010F0BD02C4931F865
:103D600015002C490988FFF7C8FE0746042F01D02B
:103D700038464FE7681C85B2392DD9DB0021214830
:103D800003F059FE0446042C01D0204642E71C48AB
:103D900003F04EFD0446042C01D020463AE707E02C
:103DA000FFF792FE0446042C01D0204632E700BF04
:103DB00000BF04202EE710B5FFF709FF0446FFF708
:103DC00055FE204610BD2DE9F84F074689460425CB
:103DD000DFF830A0AAF1010A094800904FF000086E
:103DE000002400264FF0000B0020FFF717FE80464E
:103DF000B8F1010F10D1DFF808A00248009016E0DA
:103E000000000108000401081C010020FF07010850
:103E10009A00002018010020B8F1000F04D1DFF84B
:103E2000C4A03148009002E0AB20BDE8F88F4EF608
:103E3000EE61504603F0FFFD0546042D01D02846F3
:103E4000F3E7FFF713FE49463846FFF756FE0646EE
:103E5000042E01D03046E8E700241CE0234830F867
:103E60001400B84215D0214931F814002049FFF759
:103E700082FE8346BBF1010F0BD01C4931F81400C0
:103E80001B490988FFF739FE0646042E01D030464B
:103E9000CBE7601C84B2392CE0DB009803F0C8FC4F
:103EA0000546042D01D02846BFE70021504603F007
:103EB000C2FD0546042D01D02846B6E72846B4E7E2
:103EC00070B505460E46002431462846FFF715FE1C
:103ED0000446802C04D131462846FFF774FF04467F
:103EE000204670BD00040108000001089A0000206F
:103EF0001801002000B591B00121084603F03BF8FD
:103F0000012140F2012003F043F80C20ADF84000FD
:103F100000208DF8430010A9FE4801F06BFC022040
:103F2000ADF8400000208DF8430010A9FA4801F0D8
:103F300061FCFA4803F0F6FEF94804F01BF9F74873
:103F40004C300090F7480190002002901E20039012
:103F5000002004908020059040000690800007908B
:103F6000202008900002099000200A906946EC4841
:103F700004F0A2F90121EA4804F0C9F900200B90ED
:103F800001208DF830008DF831004FF460200D9045
:103F900000200E9003208DF83C000BA9DF4803F0B1
:103FA000E8FE052301220221DC4803F07AFF052305
:103FB00002220321D94803F074FF052303220921BB
:103FC000D64803F06EFF0121D44803F009FF012118
:103FD000D24803F0FAFED14803F019FF00BFCF48E2
:103FE00003F01AFF0028FAD1CC4803F01FFF00BFEE
:103FF000CA4803F020FF0028FAD10121C74803F086
:1040000024FF11B000BD1FB50121C74801F0C3FC5A
:104010004FF44040ADF80C0048208DF80F0003A984
:10402000BD4801F0E7FB0121092002F0B1FF0E219C
:10403000012001F0F5FC4FF48040019000208DF844
:1040400008000C208DF8090001208DF80A0001A855
:1040500004F0C8F90F21002001F0E2FC4FF4004009
:10406000019000208DF808000C208DF80900012037
:104070008DF80A0001A804F0B5F928208DF8000099
:1040800001208DF801008DF802008DF803006846CC
:1040900001F0E7FA684601F0E4FA1FBD0EB5002012
:1040A00016E000224DF8202000210DE001EB410236
:1040B0009C4B03EB420232F810205DF820301A448A
:1040C0004DF820204A1CD1B20A29EFDB421CD0B2A5
:1040D0000328E6DB0A23009AB2FBF3F2934B1A6043
:1040E0000A23019AB2FBF3F2914B1A600A23029A57
:1040F000B2FBF3F202F2DC528E4B1A600EBD70B5C9
:10410000A1E0FFF7CBFF8C48007801282BD18B482A
:1041100001688B48006806F007FA03D288480068F7
:1041200086490860874801688548006806F0FCF801
:1041300003D2834800688349086083480168834844
:10414000006806F0F1F903D2804800687E490860F3
:104150007F4801687D48006806F0E6F803D27B4896
:1041600000687B49086074480078022815D17948B6
:1041700001687948006806F0D7F903D276480068EC
:1041800074490860754801687348006806F0CCF807
:1041900003D27148006871490860674800780328B5
:1041A00051D1684801686548006805F0F1FE044691
:1041B0004FF0804105F05AFF694908606448016882
:1041C0006148006805F0E4FE04464FF0804105F0C8
:1041D0004DFF64490860614801685E48006805F069
:1041E000D7FE04464FF0804105F040FF5E4908606D
:1041F000544801685148006806F0D2F9044657480F
:1042000001685448006806F0CBF90546214605F0E0
:104210002DFF564908604E4801684B48006806F07B
:10422000BFF904464D4801684A48006806F0B8F9ED
:104230000546214605F01AFF4D4908604FF07E50B3
:104240004C49086000E05CE700BF70BD2DE9F84F05
:10425000FFF724FF424801683948006806F0A0F9DA
:10426000044642480168204606F092F84249086038
:104270003C4801683548006806F092F904463C481D
:104280000168204606F084F83C4908603648016819
:104290003148006806F084F9044636480168204633
:1042A00006F076F83649086008460168006806F0AE
:1042B0006FF8009031480168006806F069F882469E
:1042C0002D480168006806F063F88346514605F002
:1042D0005FFE8146009905F05BFE044605F02CFE6A
:1042E000074605F0EFF8054605F012F92549086084
:1042F000084601682048006805F0B8FE1E490860BD
:10430000204801681D48006805F0B0FE1B490860A0
:104310001C4839E000080140000C01400024014025
:1043200008000240FE040020000230005C01002072
:104330006001002064010020010000202001002015
:104340003801002024010020280100203C01002029
:104350002C01002030010020400100203401002009
:1043600044010020480100204C01002050010020A1
:104370005401002058010020680100206C01002039
:10438000700100207401002001682348006805F0D6
:104390006DFE21490860BDE8F88F10B54FF48040EC
:1043A00004F086F860B31D480078401C1B49087073
:1043B00008460078012805D11948006810B100208E
:1043C0001749086015480078022803D1FFF7B2FAB0
:1043D000FFF7B0FA1148007803280CD1FFF7AAFACA
:1043E000FFF7A8FAFFF7A6FA00200C490870012091
:1043F0000B49086010BD4FF4804004F06AF808E0F3
:104400004FF4004004F054F818B14FF4004004F0A9
:1044100060F800BFEEE700007001002001000020FE
:10442000780100203EB504460121022002F0BDFDC6
:10443000144801F02DFBADF804404720ADF8000012
:104440000020ADF80600ADF8020069460D4801F005
:10445000F3FB01210B4802F011FA01221146094831
:1044600001F061FF3EBD10B504461CB900210548AE
:1044700001F03EFF012C03D10121024801F038FF79
:1044800010BD00000004004010B588B004460121B2
:10449000880302F07DFD0121042002F079FD4FF434
:1044A0000070ADF8040003208DF8060018208DF888
:1044B000070001A9944801F09DF94FF48060ADF820
:1044C000040003208DF8060004208DF8070001A9E0
:1044D0008D4801F08FF904940020ADF81400ADF878
:1044E0001600ADF81800ADF81C000C20ADF81A004D
:1044F0000020ADF80800ADF80A004FF40070ADF8E8
:104500000C000020ADF80E0004A9804802F011FA5A
:1045100002A97E4802F082FA012240F225517B482E
:1045200002F09FFA0121794802F08FFA08B010BD1D
:1045300010B50821754802F063FB10B1734802F012
:10454000F5FA7248008800F08000F0B16F480C3036
:10455000008800F08000C0B16D4801780078401CF0
:104560006B4A10706B48405C6849091D0880104612
:10457000007869490978884207D164480C3000887E
:1045800020F0800061490C3108806048008800F00C
:10459000200000286FD05D48001D0088C4B25F482D
:1045A000007838B9AA2C05D101205C4908705C4814
:1045B00004705FE059480078012807D1AF2C05D17D
:1045C0000220564908705648447053E0534800781A
:1045D000022809D1002C07DDF12C05DA03204F4910
:1045E00008704F48847045E04C48007803280CD18F
:1045F000322C0ADA0420494908704948C4704948F5
:10460000047000204849087034E0444800780428C9
:1046100019D144480078002815DD42480078401E32
:1046200040490870404800783F490978491C3E4A93
:104630001170001D3A490C543A480078D0B9052051
:104640003649087016E03548007805280FD100205B
:104650003249087034480078001D31490C54324802
:104660000078401DC1B22E48FCF75BFD02E000203F
:104670002A49087000BF10BD10B5044626480178CD
:104680000078401C244A107022484454012240F211
:1046900027711E4802F0E5F910BD10B504460FE081
:1046A00020780D2802D1FFF7E7FF08E020780A28DC
:1046B00002D1FFF7E1FF02E02078FFF7DDFF641C85
:1046C00020780028ECD110BD70B504460D460020BE
:1046D0000AE0225C10490B780978491C0E4E3170B3
:1046E0000C49CA54411CC8B2A842F2DB07480C303E
:1046F000008800F0800028B9012240F227710348A9
:1047000002F0AFF970BD0000000801400038014020
:10471000800100203A050020810100208201002054
:104720003A0600208301002084010020002109E0D6
:10473000002201E0531C9AB242F234139A42F9DB90
:104740004B1C99B28142F3DB70470020F849087096
:1047500070470020F7490870704730B587B00546AC
:104760000C46F5484078F449097840EA0120F349BD
:10477000B1F90010401A0690EF48C078EE498978E8
:1047800040EA0120ED49B1F90210401A0590EA48CB
:104790004079E949097940EA0120E849B1F9041072
:1047A000401A0490E448407AE349097A40EA01203B
:1047B000E349B1F90010401A0390DF48C07ADE499E
:1047C000897A40EA0120DE49B1F90210401A0290CC
:1047D000D948407BD849097B40EA0120D849B1F942
:1047E0000410401A01900698B0F5004F00DB00E07D
:1047F00000BF069810F5004F00DA00E000BF0598F2
:10480000B0F5004F00DB00E000BF059810F5004F49
:1048100000DA00E000BF0498B0F5004F00DB00E0D4
:1048200000BF049810F5004F00DA00E000BF0398C5
:10483000B0F5004F00DB00E000BF039810F5004F1B
:1048400000DA00E000BF0298B0F5004F00DB00E0A6
:1048500000BF029810F5004F00DA00E000BF019899
:10486000B0F5004F00DB00E000BF019810F5004FED
:1048700000DA00E000BF069800B22880059800B278
:104880006880049800B2A880039800B22080029843
:1048900000B26080019800B2A080A648007800288D
:1048A00054D1A848007878B90020A54908804880EC
:1048B0008880A5490860A5490860A54908600120CD
:1048C000A049087007B030BDB4F900009E490968DE
:1048D00008449D490860B4F902009C4909680844ED
:1048E0009A490860B4F9040099490968084498494C
:1048F000086094480078C82823D1934800689149FB
:10490000097890FBF1F000B28D4908808F4800686B
:104910008C49097890FBF1F000B2894948808C48B5
:1049200000688849097890FBF1F000B284498880DA
:1049300000208449087001207E490870FEF74CF879
:10494000C0E780480078401C7E49087078480078AD
:1049500000284CD17F48007870B900207749088042
:10496000488088807C4908607C4908607C490860F0
:10497000012078490870A5E7B5F900007649096873
:10498000084475490860B5F902007449096808448B
:10499000724908606F480078C82823D16E480068C3
:1049A0006C49097890FBF1F000B2644908806B48CB
:1049B00000686849097890FBF1F000B25F494880CF
:1049C000674800686349097890FBF1F000B25B49E1
:1049D000888000205F490870012055490870FDF764
:1049E000D1FF6FE75B480078401C5A49087000BF50
:1049F00068E710B5504B0E223B21D22003F08CFE0D
:104A000010BDF8B506460F4614461D466B460122FA
:104A10003946304603F0BFFE2DB10120A0409DF87D
:104A20000010084305E00120A0409DF8001021EA95
:104A30000000C0B200906B4601223946304603F0B8
:104A40002BFFF8BD2DE9F8430746884614461D465E
:104A5000089E6B4601224146384603F09CFE601CCE
:104A6000FF2101FA00F0C4F108012944491EFF2288
:104A70000A41104300F0FF09C5F1080006FA00F0F2
:104A8000C6B2C4F1070006419DF8000000EA090023
:104A900000909DF80000304300906B460122414693
:104AA000384603F0F9FEBDE8F88338B50446032321
:104AB00002226B21D2200094FFF7C4FF38BD38B525
:104AC0000446022304221B21D2200094FFF7BAFFE0
:104AD00038BD38B50446022304221C21D22000949C
:104AE000FFF7B0FF38BD10B50446234606226B2100
:104AF000D220FFF786FF10BD10B5044623460522DD
:104B00006A21D220FFF77DFF10BD10B50446234671
:104B100001223721D220FFF774FF10BD38B50446BB
:104B2000032302221A21D2200094FFF78BFF38BD05
:104B300095010020940100206C0600208E010020C9
:104B400088010020A4010020980100209C01002081
:104B5000A0010020B4010020A8010020AC01002029
:104B6000B001002010B50020FFF7BDFFC820FFF7FF
:104B7000DDFD0120FFF799FF3220FFF7D7FD03206D
:104B8000FFF79DFF3220FFF7D1FD0120FFF7A1FFC6
:104B90003220FFF7CBFD0320FFF7C0FF3220FFF7E5
:104BA000C5FD0020FFF7A8FF3220FFF7BFFD012061
:104BB000FFF7ABFF3220FFF7B9FD10BD30B5B0F500
:104BC000FA6F01DD4FF4FA60B1F5FA6F01DD4FF4D1
:104BD000FA61B2F5FA6F01DD4FF4FA62B3F5FA6FDC
:104BE00001DD4FF4FA63B0F57A7F01DA4FF47A70A1
:104BF000B1F57A7F01DA4FF47A71B2F57A7F01DA92
:104C00004FF47A72B3F57A7F01DA4FF47A734FF08A
:104C10008045A8862987514D2A80504D0C352B8020
:104C200030BD00B587B00121084602F0BEF941F25F
:104C30008830ADF814004720ADF810000020ADF822
:104C40001600ADF8120004A94FF0804000F0F4FF08
:104C50006020ADF800000120ADF802000020ADF8A2
:104C60000600ADF8080069464FF0804001F021F8D9
:104C70000821C80601F06CFC69464FF0804001F045
:104C80005AF80821C80601F06CFC0121880701F0E0
:104C90002FFC0121880701F02BFB07B000BD00B5F8
:104CA00087B00121C80202F073F941F28830ADF8F3
:104CB00014004720ADF810000020ADF81600ADF844
:104CC000120004A92548343800F0B6FF6020ADF882
:104CD00000000120ADF802000020ADF80600ADF89C
:104CE000080069461D48343800F0E3FF08211B48DE
:104CF000343801F02DFC69461848343801F0B3F817
:104D000008211648343801F042FC01211348343898
:104D100001F0FAFA01211148343801F0E9FB0121D0
:104D20000E48343801F0E4FA07B000BD08B501219F
:104D3000042002F02DF940F60310ADF80000032026
:104D40008DF8020018208DF803006946044800F031
:104D500051FDFFF766FFFFF7A2FF08BD342C0140AD
:104D60000008014000B587B00121042002F010F9CD
:104D70000121082002F00CF90121080302F008F9D2
:104D8000E020ADF8040001208DF8060018208DF811
:104D9000070001A92F4800F02DFD2020ADF80400E8
:104DA00001208DF8060010208DF8070001A92A487F
:104DB00000F020FD1020ADF8040001208DF8060061
:104DC00010208DF8070001A9224800F013FD1021E2
:104DD000204800F0BCFD0020ADF808004FF48270C0
:104DE000ADF80A000020ADF80C00ADF80E00ADF8EB
:104DF00010004FF40070ADF812001020ADF8140050
:104E00000020ADF816000720ADF8180002A91348DD
:104E100002F048F90121114802F0E9F907B000BD9C
:104E200010B5044600BF02210C4802F064FA0028C5
:104E3000F9D02146094802F00BFA00BF01210748CA
:104E400002F059FA0028F9D0044802F003FAC0B27F
:104E500010BD000000080140000C0140003001407E
:104E600070B505460C4610218A4800F072FD2846B0
:104E7000FFF7D6FF06462046FFF7D2FF10218548F0
:104E800000F065FD304670BD70B5044610218148C4
:104E900000F05FFD2046FFF7C3FF0020FFF7C0FFD3
:104EA000054610217B4800F052FD284670BD2DE9D3
:104EB000F04107460D4616461021764800F049FDA0
:104EC0003846FFF7ADFF8046002404E0285DFFF779
:104ED000A7FF601CC4B2B442F8DB10216D4800F09B
:104EE00036FD4046BDE8F0812DE9F04107460D460C
:104EF00016461021674800F02CFD3846FFF790FF5A
:104F00008046002405E00020FFF78AFF2855601C3A
:104F1000C4B2B442F7DB10215E4800F018FD4046F1
:104F2000BDE8F08170B504460D4620215A4800F0D6
:104F300010FD2A462146A020FFF7B9FF2021564840
:104F400000F005FD70BD70B504460D4620215248A5
:104F500000F0FFFC2A462146A820FFF7A8FF2021E9
:104F60004D4800F0F4FC70BD1CB505224B493020C3
:104F7000FFF79DFF052269461020FFF7B5FF0024CB
:104F800008E01DF804004549095D884200D003E0AF
:104F9000601CC4B2052CF4DB00BF052C01D101203C
:104FA0001CBD0020FCE770B504460D4620213A48A0
:104FB00000F0CFFC05223A492A20FFF778FF0522AE
:104FC00036493020FFF773FF01212120FFF748FF0A
:104FD00001212220FFF744FF1A212420FFF740FF80
:104FE00050212520FFF73CFF0F212620FFF738FF37
:104FF000012C08D120213120FFF732FF0F21202082
:10500000FFF72EFF41E0022C08D120213120FFF7CD
:1050100027FF0E212020FFF723FF36E0032C1AD1B3
:10502000FF21E120FFF71CFFFF21E220FFF718FF1F
:105030000F212020FFF714FF5020FFF7F1FE73200F
:10504000FFF7EEFE01213C20FFF70AFF06213D207D
:10505000FFF706FF19E00E212020FFF701FFFF21D7
:10506000E120FFF7FDFEFF21E220FFF7F9FE5020CF
:10507000FFF7D6FE7320FFF7D3FE01213C20FFF798
:10508000EFFE06213D20FFF7EBFE2021024800F055
:105090005EFC70BD00080140000C0140B50100201D
:1050A000BA010020D848408800B2D8498880D64844
:1050B000008800B2C880D448C08800B20880D248B6
:1050C000008800B248807047D04989888180CF49E4
:1050D000C988C180CD4909880180CC49498841806F
:1050E000704700B587B00121042001F05EFF012167
:1050F000082001F04DFF4FF47070ADF80000032060
:105100008DF8020028208DF803006946C04800F0A1
:1051100071FB4FF47071BE4800F01BFCBD4800F0FD
:10512000B7FC4FF6FF70ADF814004720ADF8100043
:105130000020ADF81600ADF8120004A9B54800F043
:105140007BFD0020ADF804000A20ADF80600012028
:10515000ADF808000020ADF80A00ADF80C0001A978
:10516000AC4800F0FCFF0420ADF804000A20ADF8C4
:1051700006000120ADF808000020ADF80A00ADF8E7
:105180000C0001A9A34800F0EAFF0820ADF80400D4
:105190000A20ADF806000120ADF808000020ADF8A7
:1051A0000A00ADF80C0001A99A4800F0D8FF0C20C5
:1051B000ADF804000A20ADF806000120ADF80800A3
:1051C0000020ADF80A00ADF80C0001A9914800F0EC
:1051D000C6FF01218F4801F08BF8012202218D4882
:1051E00001F0A1F8012204218A4801F09CF8012273
:1051F0000821884801F097F801221021854801F024
:1052000092F807B000BD10B582481030008800F059
:10521000020098B37F49343108887E4910310988EB
:1052200021F400717B4A10321180794908310968F4
:1052300001F0400151B17849088076492031098850
:1052400041F00201734A2032118022E07349088044
:1052500070492031098821F002016E4A2032118004
:105260006E4909886C4A1288914208DB6B490988AB
:10527000694A1288891A644A11800AE00AE066497C
:1052800009884FF6FF72511A644A128811445E4A27
:10529000118000BF5F481030008800F00400B0B3F8
:1052A0005C49383108885A490831096801F08001A1
:1052B00051B15B49088057492031098841F02001EC
:1052C000544A2032118021E056490880514920314A
:1052D000098821F020014F4A203211805149098864
:1052E0004F4A1288914207DB4E4909884C4A12887E
:1052F000891A454A518009E0494909884FF6FF72E9
:10530000511A484A128811443F4A518000BF41480F
:105310001030008800F00800B0B33E493C310888E6
:105320003B490831096801F4807151B13E49088058
:1053300038492031098841F40071364A2032118001
:1053400021E03A49088033492031098821F400716D
:10535000304A2032118035490988334A12889142F7
:1053600007DB32490988304A1288891A264A918017
:1053700009E02D4909884FF6FF72511A2B4A12880D
:105380001144214A918000BF22481030008800F06B
:105390001000C0B31F48403004881D480830006822
:1053A00000F4007050B1224804801A482030008870
:1053B00040F4005017492031088023E01D48048044
:1053C00014482030008820F4005012492031088011
:1053D0001848008816490988884207DB1548008864
:1053E00013490988401A0849C88009E01048008814
:1053F0004FF6FF71081A0F49098808440249C8800E
:10540000FFF750FE00BF10BDC0010020BA0600200B
:10541000000C014000080040C8010020CA01002023
:10542000CC010020CE010020D0010020D2010020BC
:10543000D4010020D60100200948804709480047D0
:10544000FEE7FEE7FEE7FEE7FEE7FEE7FEE7FEE734
:10545000FEE7FEE704480549054A064B7047000091
:1054600057550008ED00000830070020300D0020DF
:1054700030090020300900200CB500200190009078
:105480006C48006840F480306A49086000BF694891
:10549000006800F4003000900198401C01900098D2
:1054A00018B90198B0F5A06FF1D16248006800F416
:1054B000003010B10120009001E000200090009821
:1054C000012843D15C48006840F010005A49086048
:1054D0000846006820F0030008600846006840F0B5
:1054E00002000860534840685249486008464068D6
:1054F00048600846406840F480604860084640685C
:1055000020F47C1048600846406840F4E810486089
:105510000846006840F08070086000BF4548006899
:1055200000F000700028F9D04248406820F00300E5
:10553000404948600846406840F00200486000BFAB
:105540003C48406800F00C000828F9D10CBD10B5AB
:10555000FFF792FF10BD10B53648006840F001001B
:105560003449086008464068344908403149486079
:1055700008460068324908402E490860084600681D
:1055800020F4802008600846406820F4FE0048604F
:105590004FF41F008860FFF7DAFF4FF000602949E1
:1055A000086010BD10B5002100200022214B5B686F
:1055B00003F00C0121B1042906D0082928D107E005
:1055C000214B224C236027E01F4B204C236023E01B
:1055D000184B5B6803F47010164B5B6803F4803261
:1055E000022303EB904022B9194B4343174C23602D
:1055F0000DE0104B5B6803F4003323B1144B4343BD
:10560000124C236003E0104B4343104C236003E033
:105610000D4B0E4C236000BF00BF064B5B68C3F30D
:1056200003130C4CE15C094B1B68CB40074C236017
:1056300010BD000000100240002002400000FFF8F2
:10564000FFFFF6FE08ED00E000127A00D80100200E
:1056500000093D00DC01002031490143314A11605D
:10566000704770B5002100230F22C47804B32D4C7D
:10567000246804F4E064C4F5E064210AC1F1040381
:10568000CA40447804FA03F18478144021430901A4
:10569000254C0678A155047804F01F050124AC4080
:1056A00005786D11AD0005F1E025C5F8004109E070
:1056B000047804F01F050124AC401C4D06787611D7
:1056C00045F8264070BD1A4A0A400243154B1B1F7D
:1056D0001A60704739B1134A121D12680243114B08
:1056E0001B1D1A6006E00F4A121D126882430D4B03
:1056F0001B1D1A607047042808D14FF0E02109698A
:1057000041F004014FF0E022116107E04FF0E02189
:10571000096921F004014FF0E02211617047000097
:105720000000FA050CED00E000E400E080E100E09C
:1057300080FFFF1F10B50446CC48844208D10121E8
:10574000042001F03FFC0021042001F03BFC46E076
:10575000C748844208D10121082001F033FC002110
:10576000082001F02FFC3AE0C248844208D1012110
:10577000102001F027FC0021102001F023FC2EE076
:10578000BD48844208D10121202001F01BFC0021EA
:10579000202001F017FC22E0B848844208D1012102
:1057A000402001F00FFC0021402001F00BFC16E02E
:1057B000B348844208D10121802001F003FC00217C
:1057C000802001F0FFFB0AE0AE48844207D10121AE
:1057D000801501F0F7FB0021A01501F0F3FB10BDCF
:1057E00010B50121084601F0EDFB0021012001F078
:1057F000E9FB10BD2DE9F0410246002500260020FE
:1058000000230024002791F803C00CF00F0591F845
:1058100003C00CF0100CBCF1000F03D091F802C0D3
:105820004CEA050591F800C0BCF1000F31D01468B6
:1058300000202BE04FF0010C0CFA00F3B1F800C08F
:105840000CEA03069E4220D183004FF00F0C0CFAA5
:1058500003F7BC4305FA03FC4CEA040491F803C0C7
:10586000BCF1280F06D14FF0010C0CFA00FCC2F875
:1058700014C00AE091F803C0BCF1480F05D14FF005
:10588000010C0CFA00FCC2F810C0401C0828D1D34F
:105890001460B1F800C0BCF1FF0F34DD5468002083
:1058A0002EE000F1080C4FF0010808FA0CF3B1F8F3
:1058B00000C00CEA03069E4221D183004FF00F0C7A
:1058C0000CFA03F7BC4305FA03FC4CEA040491F814
:1058D00003C0BCF1280F05D100F1080C08FA0CF840
:1058E000C2F8148091F803C0BCF1480F07D100F151
:1058F000080C4FF0010808FA0CF8C2F81080401CA0
:105900000828CED35460BDE8F0814FF6FF710180C6
:10591000022181700421C170704702460020936803
:105920000B400BB1012000E0002070470146886861
:1059300080B2704702460020D3680B400BB10120B3
:1059400000E0002070470146C86880B270470161DE
:105950007047416170470AB1016100E041617047E1
:10596000C16070474FF480320A4382618161826175
:1059700082698269704702460020434B18684FF6DF
:105980008073184040EA021008433F4B186070478C
:105990003E49C8617047F0B50A4600230024002143
:1059A000002500F00046B6F1004F02D1364EF169F5
:1059B00001E0354E7168C0F3034583B200F4401630
:1059C000B6F5401F08D121F070612F4E766826F0A1
:1059D00070662D4F7E6012E000F48016B6F5801FD1
:1059E00006D1032606FA05F4A14341F0706106E0F2
:1059F000460D360103FA06F6B14341F0706122B15B
:105A0000460D360103FA06F6314300F00046B6F1C2
:105A1000004F02D11C4EF16101E01B4E7160F0BDE0
:105A200030B500228B071C0F0F2303FA04F2164B2C
:105A300008338C1053F824309343134C08348D10E2
:105A400044F8253023468C1053F824308C07240F5B
:105A500000FA04F423430C4C08348D1044F825302C
:105A600030BD0A49DC310860704700000008014081
:105A7000000C0140001001400014014000180140DA
:105A8000001C0140002001400000014000002042B5
:105A900010B50446FE48844208D10121C01401F02B
:105AA00091FA0021E01401F08DFAC4E0B4F1804FC6
:105AB00008D10121084601F092FA0021012001F0ED
:105AC0008EFAB8E0F348844208D10121022001F0A7
:105AD00086FA0021022001F082FAACE0EE4884420E
